{
  "contractName": "WireToken",
  "abi": [
    {
      "constant": true,
      "inputs": [],
      "name": "mintingFinished",
      "outputs": [
        {
          "name": "",
          "type": "bool"
        }
      ],
      "payable": false,
      "stateMutability": "view",
      "type": "function"
    },
    {
      "constant": true,
      "inputs": [],
      "name": "name",
      "outputs": [
        {
          "name": "",
          "type": "string"
        }
      ],
      "payable": false,
      "stateMutability": "view",
      "type": "function"
    },
    {
      "constant": false,
      "inputs": [
        {
          "name": "_spender",
          "type": "address"
        },
        {
          "name": "_value",
          "type": "uint256"
        }
      ],
      "name": "approve",
      "outputs": [
        {
          "name": "",
          "type": "bool"
        }
      ],
      "payable": false,
      "stateMutability": "nonpayable",
      "type": "function"
    },
    {
      "constant": true,
      "inputs": [],
      "name": "totalSupply",
      "outputs": [
        {
          "name": "",
          "type": "uint256"
        }
      ],
      "payable": false,
      "stateMutability": "view",
      "type": "function"
    },
    {
      "constant": false,
      "inputs": [
        {
          "name": "_from",
          "type": "address"
        },
        {
          "name": "_to",
          "type": "address"
        },
        {
          "name": "_value",
          "type": "uint256"
        }
      ],
      "name": "transferFrom",
      "outputs": [
        {
          "name": "",
          "type": "bool"
        }
      ],
      "payable": false,
      "stateMutability": "nonpayable",
      "type": "function"
    },
    {
      "constant": true,
      "inputs": [],
      "name": "decimals",
      "outputs": [
        {
          "name": "",
          "type": "uint8"
        }
      ],
      "payable": false,
      "stateMutability": "view",
      "type": "function"
    },
    {
      "constant": false,
      "inputs": [],
      "name": "unpause",
      "outputs": [],
      "payable": false,
      "stateMutability": "nonpayable",
      "type": "function"
    },
    {
      "constant": false,
      "inputs": [
        {
          "name": "_to",
          "type": "address"
        },
        {
          "name": "_amount",
          "type": "uint256"
        }
      ],
      "name": "mint",
      "outputs": [
        {
          "name": "",
          "type": "bool"
        }
      ],
      "payable": false,
      "stateMutability": "nonpayable",
      "type": "function"
    },
    {
      "constant": false,
      "inputs": [
        {
          "name": "_value",
          "type": "uint256"
        }
      ],
      "name": "burn",
      "outputs": [],
      "payable": false,
      "stateMutability": "nonpayable",
      "type": "function"
    },
    {
      "constant": true,
      "inputs": [],
      "name": "paused",
      "outputs": [
        {
          "name": "",
          "type": "bool"
        }
      ],
      "payable": false,
      "stateMutability": "view",
      "type": "function"
    },
    {
      "constant": false,
      "inputs": [
        {
          "name": "_spender",
          "type": "address"
        },
        {
          "name": "_subtractedValue",
          "type": "uint256"
        }
      ],
      "name": "decreaseApproval",
      "outputs": [
        {
          "name": "success",
          "type": "bool"
        }
      ],
      "payable": false,
      "stateMutability": "nonpayable",
      "type": "function"
    },
    {
      "constant": true,
      "inputs": [
        {
          "name": "_owner",
          "type": "address"
        }
      ],
      "name": "balanceOf",
      "outputs": [
        {
          "name": "balance",
          "type": "uint256"
        }
      ],
      "payable": false,
      "stateMutability": "view",
      "type": "function"
    },
    {
      "constant": false,
      "inputs": [],
      "name": "finishMinting",
      "outputs": [
        {
          "name": "",
          "type": "bool"
        }
      ],
      "payable": false,
      "stateMutability": "nonpayable",
      "type": "function"
    },
    {
      "constant": false,
      "inputs": [],
      "name": "pause",
      "outputs": [],
      "payable": false,
      "stateMutability": "nonpayable",
      "type": "function"
    },
    {
      "constant": true,
      "inputs": [],
      "name": "owner",
      "outputs": [
        {
          "name": "",
          "type": "address"
        }
      ],
      "payable": false,
      "stateMutability": "view",
      "type": "function"
    },
    {
      "constant": true,
      "inputs": [],
      "name": "symbol",
      "outputs": [
        {
          "name": "",
          "type": "string"
        }
      ],
      "payable": false,
      "stateMutability": "view",
      "type": "function"
    },
    {
      "constant": false,
      "inputs": [
        {
          "name": "_to",
          "type": "address"
        },
        {
          "name": "_value",
          "type": "uint256"
        }
      ],
      "name": "transfer",
      "outputs": [
        {
          "name": "",
          "type": "bool"
        }
      ],
      "payable": false,
      "stateMutability": "nonpayable",
      "type": "function"
    },
    {
      "constant": false,
      "inputs": [
        {
          "name": "_spender",
          "type": "address"
        },
        {
          "name": "_addedValue",
          "type": "uint256"
        }
      ],
      "name": "increaseApproval",
      "outputs": [
        {
          "name": "success",
          "type": "bool"
        }
      ],
      "payable": false,
      "stateMutability": "nonpayable",
      "type": "function"
    },
    {
      "constant": true,
      "inputs": [
        {
          "name": "_owner",
          "type": "address"
        },
        {
          "name": "_spender",
          "type": "address"
        }
      ],
      "name": "allowance",
      "outputs": [
        {
          "name": "",
          "type": "uint256"
        }
      ],
      "payable": false,
      "stateMutability": "view",
      "type": "function"
    },
    {
      "constant": false,
      "inputs": [
        {
          "name": "newOwner",
          "type": "address"
        }
      ],
      "name": "transferOwnership",
      "outputs": [],
      "payable": false,
      "stateMutability": "nonpayable",
      "type": "function"
    },
    {
      "anonymous": false,
      "inputs": [
        {
          "indexed": true,
          "name": "to",
          "type": "address"
        },
        {
          "indexed": false,
          "name": "amount",
          "type": "uint256"
        }
      ],
      "name": "Mint",
      "type": "event"
    },
    {
      "anonymous": false,
      "inputs": [],
      "name": "MintFinished",
      "type": "event"
    },
    {
      "anonymous": false,
      "inputs": [],
      "name": "Pause",
      "type": "event"
    },
    {
      "anonymous": false,
      "inputs": [],
      "name": "Unpause",
      "type": "event"
    },
    {
      "anonymous": false,
      "inputs": [
        {
          "indexed": true,
          "name": "previousOwner",
          "type": "address"
        },
        {
          "indexed": true,
          "name": "newOwner",
          "type": "address"
        }
      ],
      "name": "OwnershipTransferred",
      "type": "event"
    },
    {
      "anonymous": false,
      "inputs": [
        {
          "indexed": true,
          "name": "burner",
          "type": "address"
        },
        {
          "indexed": false,
          "name": "value",
          "type": "uint256"
        }
      ],
      "name": "Burn",
      "type": "event"
    },
    {
      "anonymous": false,
      "inputs": [
        {
          "indexed": true,
          "name": "owner",
          "type": "address"
        },
        {
          "indexed": true,
          "name": "spender",
          "type": "address"
        },
        {
          "indexed": false,
          "name": "value",
          "type": "uint256"
        }
      ],
      "name": "Approval",
      "type": "event"
    },
    {
      "anonymous": false,
      "inputs": [
        {
          "indexed": true,
          "name": "from",
          "type": "address"
        },
        {
          "indexed": true,
          "name": "to",
          "type": "address"
        },
        {
          "indexed": false,
          "name": "value",
          "type": "uint256"
        }
      ],
      "name": "Transfer",
      "type": "event"
    }
  ],
  "bytecode": "0x606060405260038054600160b060020a03191633600160a060020a0316179055610e998061002e6000396000f3006060604052600436106101115763ffffffff7c010000000000000000000000000000000000000000000000000000000060003504166305d2035b811461011657806306fdde031461013d578063095ea7b3146101c757806318160ddd146101e957806323b872dd1461020e578063313ce567146102365780633f4ba83a1461025f57806340c10f191461027457806342966c68146102965780635c975abb146102ac57806366188463146102bf57806370a08231146102e15780637d64bcb4146103005780638456cb59146103135780638da5cb5b1461032657806395d89b4114610355578063a9059cbb14610368578063d73dd6231461038a578063dd62ed3e146103ac578063f2fde38b146103d1575b600080fd5b341561012157600080fd5b6101296103f0565b604051901515815260200160405180910390f35b341561014857600080fd5b610150610400565b60405160208082528190810183818151815260200191508051906020019080838360005b8381101561018c578082015183820152602001610174565b50505050905090810190601f1680156101b95780820380516001836020036101000a031916815260200191505b509250505060405180910390f35b34156101d257600080fd5b610129600160a060020a0360043516602435610437565b34156101f457600080fd5b6101fc610462565b60405190815260200160405180910390f35b341561021957600080fd5b610129600160a060020a0360043581169060243516604435610468565b341561024157600080fd5b610249610495565b60405160ff909116815260200160405180910390f35b341561026a57600080fd5b61027261049a565b005b341561027f57600080fd5b610129600160a060020a0360043516602435610519565b34156102a157600080fd5b610272600435610626565b34156102b757600080fd5b610129610649565b34156102ca57600080fd5b610129600160a060020a0360043516602435610659565b34156102ec57600080fd5b6101fc600160a060020a036004351661067d565b341561030b57600080fd5b610129610698565b341561031e57600080fd5b610272610724565b341561033157600080fd5b6103396107a8565b604051600160a060020a03909116815260200160405180910390f35b341561036057600080fd5b6101506107b7565b341561037357600080fd5b610129600160a060020a03600435166024356107ee565b341561039557600080fd5b610129600160a060020a0360043516602435610812565b34156103b757600080fd5b6101fc600160a060020a0360043581169060243516610836565b34156103dc57600080fd5b610272600160a060020a0360043516610861565b60035460a860020a900460ff1681565b60408051908101604052600981527f57697265546f6b656e0000000000000000000000000000000000000000000000602082015281565b60035460009060a060020a900460ff161561045157600080fd5b61045b83836108fc565b9392505050565b60005481565b60035460009060a060020a900460ff161561048257600080fd5b61048d848484610968565b949350505050565b601281565b60035433600160a060020a039081169116146104b557600080fd5b60035460a060020a900460ff1615156104cd57600080fd5b6003805474ff0000000000000000000000000000000000000000191690557f7805862f689e2f13df9f062ff482ad3ad112aca9e0847911ed832e158c525b3360405160405180910390a1565b60035460009033600160a060020a0390811691161461053757600080fd5b60035460a860020a900460ff161561054e57600080fd5b600054610561908363ffffffff610aea16565b6000908155600160a060020a03841681526001602052604090205461058c908363ffffffff610aea16565b600160a060020a0384166000818152600160205260409081902092909255907f0f6798a560793a54c3bcfe86a93cde1e73087d944c0ea20544137d41213968859084905190815260200160405180910390a2600160a060020a03831660007fddf252ad1be2c89b69c2b068fc378daa952ba7f163c4a11628f55a4df523b3ef8460405190815260200160405180910390a350600192915050565b60035460a060020a900460ff161561063d57600080fd5b61064681610af9565b50565b60035460a060020a900460ff1681565b60035460009060a060020a900460ff161561067357600080fd5b61045b8383610bc2565b600160a060020a031660009081526001602052604090205490565b60035460009033600160a060020a039081169116146106b657600080fd5b60035460a860020a900460ff16156106cd57600080fd5b6003805475ff000000000000000000000000000000000000000000191660a860020a1790557fae5184fba832cb2b1f702aca6117b8d265eaf03ad33eb133f19dde0f5920fa0860405160405180910390a150600190565b60035433600160a060020a0390811691161461073f57600080fd5b60035460a060020a900460ff161561075657600080fd5b6003805474ff0000000000000000000000000000000000000000191660a060020a1790557f6985a02210a168e66602d3235cb6db0e70f92b3ba4d376a33c0f3d9434bff62560405160405180910390a1565b600354600160a060020a031681565b60408051908101604052600481527f5749524500000000000000000000000000000000000000000000000000000000602082015281565b60035460009060a060020a900460ff161561080857600080fd5b61045b8383610cbc565b60035460009060a060020a900460ff161561082c57600080fd5b61045b8383610db7565b600160a060020a03918216600090815260026020908152604080832093909416825291909152205490565b60035433600160a060020a0390811691161461087c57600080fd5b600160a060020a038116151561089157600080fd5b600354600160a060020a0380831691167f8be0079c531659141344cd1fd0a4f28419497f9722a3daafe3b4186f6b6457e060405160405180910390a36003805473ffffffffffffffffffffffffffffffffffffffff1916600160a060020a0392909216919091179055565b600160a060020a03338116600081815260026020908152604080832094871680845294909152808220859055909291907f8c5be1e5ebec7d5bd14f71427d1e84f3dd0314c0f7b2291e5b200ac8c7c3b9259085905190815260200160405180910390a350600192915050565b6000600160a060020a038316151561097f57600080fd5b600160a060020a0384166000908152600160205260409020548211156109a457600080fd5b600160a060020a03808516600090815260026020908152604080832033909416835292905220548211156109d757600080fd5b600160a060020a038416600090815260016020526040902054610a00908363ffffffff610e5b16565b600160a060020a038086166000908152600160205260408082209390935590851681522054610a35908363ffffffff610aea16565b600160a060020a03808516600090815260016020908152604080832094909455878316825260028152838220339093168252919091522054610a7d908363ffffffff610e5b16565b600160a060020a03808616600081815260026020908152604080832033861684529091529081902093909355908516917fddf252ad1be2c89b69c2b068fc378daa952ba7f163c4a11628f55a4df523b3ef9085905190815260200160405180910390a35060019392505050565b60008282018381101561045b57fe5b6000808211610b0757600080fd5b600160a060020a033316600090815260016020526040902054821115610b2c57600080fd5b5033600160a060020a038116600090815260016020526040902054610b519083610e5b565b600160a060020a03821660009081526001602052604081209190915554610b7e908363ffffffff610e5b16565b600055600160a060020a0381167fcc16f5dbb4873280815c1ee09dbd06736cffcc184412cf7a71a0fdb75d397ca58360405190815260200160405180910390a25050565b600160a060020a03338116600090815260026020908152604080832093861683529290529081205480831115610c1f57600160a060020a033381166000908152600260209081526040808320938816835292905290812055610c56565b610c2f818463ffffffff610e5b16565b600160a060020a033381166000908152600260209081526040808320938916835292905220555b600160a060020a0333811660008181526002602090815260408083209489168084529490915290819020547f8c5be1e5ebec7d5bd14f71427d1e84f3dd0314c0f7b2291e5b200ac8c7c3b925915190815260200160405180910390a35060019392505050565b6000600160a060020a0383161515610cd357600080fd5b600160a060020a033316600090815260016020526040902054821115610cf857600080fd5b600160a060020a033316600090815260016020526040902054610d21908363ffffffff610e5b16565b600160a060020a033381166000908152600160205260408082209390935590851681522054610d56908363ffffffff610aea16565b600160a060020a0380851660008181526001602052604090819020939093559133909116907fddf252ad1be2c89b69c2b068fc378daa952ba7f163c4a11628f55a4df523b3ef9085905190815260200160405180910390a350600192915050565b600160a060020a033381166000908152600260209081526040808320938616835292905290812054610def908363ffffffff610aea16565b600160a060020a0333811660008181526002602090815260408083209489168084529490915290819020849055919290917f8c5be1e5ebec7d5bd14f71427d1e84f3dd0314c0f7b2291e5b200ac8c7c3b92591905190815260200160405180910390a350600192915050565b600082821115610e6757fe5b509003905600a165627a7a72305820aad417d9ae3a3a7497e4175bff5836b9051759a41f3fee1187b34f04db039bbf0029",
  "source": "pragma solidity ^0.4.18;\n\nimport \"zeppelin-solidity/contracts/token/BurnableToken.sol\";\nimport \"zeppelin-solidity/contracts/token/PausableToken.sol\";\nimport \"zeppelin-solidity/contracts/token/MintableToken.sol\";\n\ncontract WireToken is BurnableToken, PausableToken, MintableToken {\n\n  string public constant name = \"WireToken\";\n\n  string public constant symbol = \"WIRE\";\n\n  uint8 public constant decimals = 18;\n\n  // Override burn function to avoid burning when token is paused.\n  function burn(uint256 _value) whenNotPaused public {\n    super.burn(_value);\n  }\n}",
  "sourcePath": "/Users/santiagoramirez/Development/College/Bitcoin/wire/contracts/WireToken.sol",
  "compiler": {
    "name": "solc",
    "version": "0.4.18+commit.9cf6e910.Emscripten.clang"
  },
  "schemaVersion": "1.0.1",
  "updatedAt": "2017-11-26T22:40:14.187Z"
}