{
  "contractName": "WireCrowdsale",
  "abi": [
    {
      "constant": false,
      "inputs": [],
      "name": "pauseToken",
      "outputs": [],
      "payable": false,
      "stateMutability": "nonpayable",
      "type": "function"
    },
    {
      "constant": true,
      "inputs": [],
      "name": "rate",
      "outputs": [
        {
          "name": "",
          "type": "uint256"
        }
      ],
      "payable": false,
      "stateMutability": "view",
      "type": "function"
    },
    {
      "constant": true,
      "inputs": [],
      "name": "endTime",
      "outputs": [
        {
          "name": "",
          "type": "uint256"
        }
      ],
      "payable": false,
      "stateMutability": "view",
      "type": "function"
    },
    {
      "constant": true,
      "inputs": [],
      "name": "cap",
      "outputs": [
        {
          "name": "",
          "type": "uint256"
        }
      ],
      "payable": false,
      "stateMutability": "view",
      "type": "function"
    },
    {
      "constant": true,
      "inputs": [],
      "name": "FOUNDATION_SHARE",
      "outputs": [
        {
          "name": "",
          "type": "uint256"
        }
      ],
      "payable": false,
      "stateMutability": "view",
      "type": "function"
    },
    {
      "constant": true,
      "inputs": [],
      "name": "weiRaised",
      "outputs": [
        {
          "name": "",
          "type": "uint256"
        }
      ],
      "payable": false,
      "stateMutability": "view",
      "type": "function"
    },
    {
      "constant": false,
      "inputs": [],
      "name": "finalize",
      "outputs": [],
      "payable": false,
      "stateMutability": "nonpayable",
      "type": "function"
    },
    {
      "constant": false,
      "inputs": [],
      "name": "unpauseToken",
      "outputs": [],
      "payable": false,
      "stateMutability": "nonpayable",
      "type": "function"
    },
    {
      "constant": true,
      "inputs": [],
      "name": "wallet",
      "outputs": [
        {
          "name": "",
          "type": "address"
        }
      ],
      "payable": false,
      "stateMutability": "view",
      "type": "function"
    },
    {
      "constant": true,
      "inputs": [],
      "name": "startTime",
      "outputs": [
        {
          "name": "",
          "type": "uint256"
        }
      ],
      "payable": false,
      "stateMutability": "view",
      "type": "function"
    },
    {
      "constant": true,
      "inputs": [],
      "name": "isFinalized",
      "outputs": [
        {
          "name": "",
          "type": "bool"
        }
      ],
      "payable": false,
      "stateMutability": "view",
      "type": "function"
    },
    {
      "constant": true,
      "inputs": [],
      "name": "owner",
      "outputs": [
        {
          "name": "",
          "type": "address"
        }
      ],
      "payable": false,
      "stateMutability": "view",
      "type": "function"
    },
    {
      "constant": true,
      "inputs": [],
      "name": "TOTAL_SHARE",
      "outputs": [
        {
          "name": "",
          "type": "uint256"
        }
      ],
      "payable": false,
      "stateMutability": "view",
      "type": "function"
    },
    {
      "constant": true,
      "inputs": [],
      "name": "CROWDSALE_SHARE",
      "outputs": [
        {
          "name": "",
          "type": "uint256"
        }
      ],
      "payable": false,
      "stateMutability": "view",
      "type": "function"
    },
    {
      "constant": true,
      "inputs": [],
      "name": "hasBeenEndedByOwner",
      "outputs": [
        {
          "name": "",
          "type": "bool"
        }
      ],
      "payable": false,
      "stateMutability": "view",
      "type": "function"
    },
    {
      "constant": false,
      "inputs": [
        {
          "name": "beneficiary",
          "type": "address"
        }
      ],
      "name": "buyTokens",
      "outputs": [],
      "payable": true,
      "stateMutability": "payable",
      "type": "function"
    },
    {
      "constant": true,
      "inputs": [],
      "name": "hasEnded",
      "outputs": [
        {
          "name": "",
          "type": "bool"
        }
      ],
      "payable": false,
      "stateMutability": "view",
      "type": "function"
    },
    {
      "constant": false,
      "inputs": [],
      "name": "end",
      "outputs": [],
      "payable": false,
      "stateMutability": "nonpayable",
      "type": "function"
    },
    {
      "constant": false,
      "inputs": [
        {
          "name": "_to",
          "type": "address"
        },
        {
          "name": "_amount",
          "type": "uint256"
        }
      ],
      "name": "mintTokens",
      "outputs": [],
      "payable": false,
      "stateMutability": "nonpayable",
      "type": "function"
    },
    {
      "constant": false,
      "inputs": [
        {
          "name": "newOwner",
          "type": "address"
        }
      ],
      "name": "transferOwnership",
      "outputs": [
        {
          "name": "",
          "type": "address"
        }
      ],
      "payable": false,
      "stateMutability": "nonpayable",
      "type": "function"
    },
    {
      "inputs": [
        {
          "name": "_startTime",
          "type": "uint256"
        },
        {
          "name": "_endTime",
          "type": "uint256"
        },
        {
          "name": "_rate",
          "type": "uint256"
        },
        {
          "name": "_cap",
          "type": "uint256"
        },
        {
          "name": "_wallet",
          "type": "address"
        }
      ],
      "payable": false,
      "stateMutability": "view",
      "type": "function",
      "constant": true,
      "name": "token",
      "outputs": [
        {
          "name": "",
          "type": "address"
        }
      ]
    },
    {
      "payable": false,
      "stateMutability": "nonpayable",
      "type": "constructor",
      "inputs": [
        {
          "name": "_startTime",
          "type": "uint256"
        },
        {
          "name": "_endTime",
          "type": "uint256"
        },
        {
          "name": "_rate",
          "type": "uint256"
        },
        {
          "name": "_cap",
          "type": "uint256"
        },
        {
          "name": "_wallet",
          "type": "address"
        }
      ]
    },
    {
      "anonymous": false,
      "inputs": [],
      "name": "Finalized",
      "type": "fallback",
      "payable": true,
      "stateMutability": "payable"
    },
    {
      "anonymous": false,
      "inputs": [
        {
          "indexed": true,
          "name": "previousOwner",
          "type": "address"
        },
        {
          "indexed": true,
          "name": "newOwner",
          "type": "address"
        }
      ],
      "name": "Finalized",
      "type": "event"
    },
    {
      "anonymous": false,
      "inputs": [
        {
          "indexed": true,
          "name": "previousOwner",
          "type": "address"
        },
        {
          "indexed": true,
          "name": "newOwner",
          "type": "address"
        },
        {
          "indexed": false,
          "name": "value",
          "type": "uint256"
        },
        {
          "indexed": false,
          "name": "amount",
          "type": "uint256"
        }
      ],
      "name": "OwnershipTransferred",
      "type": "event"
    },
    {
      "anonymous": false,
      "inputs": [
        {
          "indexed": true,
          "name": "purchaser",
          "type": "address"
        },
        {
          "indexed": true,
          "name": "beneficiary",
          "type": "address"
        },
        {
          "indexed": false,
          "name": "value",
          "type": "uint256"
        },
        {
          "indexed": false,
          "name": "amount",
          "type": "uint256"
        }
      ],
      "name": "TokenPurchase",
      "type": "event"
    }
  ],
  "bytecode": "0x60606040526007805460a060020a61ffff0219169055341561002057600080fd5b60405160a080612a0e83398101604052808051919060200180519190602001805191906020018051919060200180519150829050858585844284101561006557600080fd5b8383101561007257600080fd5b6000821161007f57600080fd5b600160a060020a038116151561009457600080fd5b6100a9640100000000610a5d61018382021704565b60008054600160a060020a0319908116600160a060020a039384161782556001969096556002949094556004929092556003805490941691161790915581116100f157600080fd5b60065560078054600160a060020a03191633600160a060020a039081169190911790915560005416638456cb596040518163ffffffff167c0100000000000000000000000000000000000000000000000000000000028152600401600060405180830381600087803b151561016557600080fd5b6102c65a03f1151561017657600080fd5b50505050505050506101b8565b600061018d6101a8565b604051809103906000f08015156101a357600080fd5b905090565b604051610ec780611b4783390190565b611980806101c76000396000f3006060604052600436106101035763ffffffff60e060020a6000350416632c349627811461010e5780632c4e722e146101215780633197cbb614610146578063355274ea146101595780633723f1491461016c5780634042b66f1461017f5780634bb278f31461019257806350669a03146101a5578063521eb273146101b857806378e97925146101e75780638d4e4083146101fa5780638da5cb5b14610221578063bf41e16f14610234578063d9719e5614610247578063e6eb2bff1461025a578063ec8ac4d81461026d578063ecb70fb714610281578063efbe1c1c14610294578063f0dda65c146102a7578063f2fde38b146102c9578063fc0c546a146102e8575b61010c336102fb565b005b341561011957600080fd5b61010c61042f565b341561012c57600080fd5b6101346104b2565b60405190815260200160405180910390f35b341561015157600080fd5b6101346104b8565b341561016457600080fd5b6101346104be565b341561017757600080fd5b6101346104c4565b341561018a57600080fd5b6101346104c9565b341561019d57600080fd5b61010c6104cf565b34156101b057600080fd5b61010c61056e565b34156101c357600080fd5b6101cb6105e0565b604051600160a060020a03909116815260200160405180910390f35b34156101f257600080fd5b6101346105ef565b341561020557600080fd5b61020d6105f5565b604051901515815260200160405180910390f35b341561022c57600080fd5b6101cb610605565b341561023f57600080fd5b610134610614565b341561025257600080fd5b610134610619565b341561026557600080fd5b61020d61061e565b61010c600160a060020a03600435166102fb565b341561028c57600080fd5b61020d610640565b341561029f57600080fd5b61010c610675565b34156102b257600080fd5b61010c600160a060020a03600435166024356106c9565b34156102d457600080fd5b61010c600160a060020a0360043516610765565b34156102f357600080fd5b6101cb610800565b600080600160a060020a038316151561031357600080fd5b61031b61080f565b151561032657600080fd5b60045434925061033d90839063ffffffff61084516565b600554909150610353908363ffffffff61087b16565b60055560008054600160a060020a0316906340c10f1990859084906040516020015260405160e060020a63ffffffff8516028152600160a060020a0390921660048301526024820152604401602060405180830381600087803b15156103b857600080fd5b6102c65a03f115156103c957600080fd5b505050604051805190505082600160a060020a031633600160a060020a03167f623b3804fa71d67900d064613da8f94b9617215ee90799290593e1745087ad18848460405191825260208201526040908101905180910390a361042a61088a565b505050565b60075433600160a060020a0390811691161461044a57600080fd5b60075460a060020a900460ff16151561046257600080fd5b600054600160a060020a0316638456cb596040518163ffffffff1660e060020a028152600401600060405180830381600087803b15156104a157600080fd5b6102c65a03f1151561042a57600080fd5b60045481565b60025481565b60065481565b602881565b60055481565b60075433600160a060020a039081169116146104ea57600080fd5b60075460a060020a900460ff161561050157600080fd5b610509610640565b151561051457600080fd5b61051c6108c0565b7f6823b073d48d6e3a7d385eeb601452d680e74bb46afe3255a7d778f3a9b1768160405160405180910390a16007805474ff0000000000000000000000000000000000000000191660a060020a179055565b60075433600160a060020a0390811691161461058957600080fd5b60075460a060020a900460ff1615156105a157600080fd5b600054600160a060020a0316633f4ba83a6040518163ffffffff1660e060020a028152600401600060405180830381600087803b15156104a157600080fd5b600354600160a060020a031681565b60015481565b60075460a060020a900460ff1681565b600754600160a060020a031681565b606481565b603c81565b6007547501000000000000000000000000000000000000000000900460ff1681565b600061064a6109ef565b8061067057506007547501000000000000000000000000000000000000000000900460ff165b905090565b60075433600160a060020a0390811691161461069057600080fd5b6007805475ff00000000000000000000000000000000000000000019167501000000000000000000000000000000000000000000179055565b60075433600160a060020a039081169116146106e457600080fd5b60008054600160a060020a0316906340c10f1990849084906040516020015260405160e060020a63ffffffff8516028152600160a060020a0390921660048301526024820152604401602060405180830381600087803b151561074657600080fd5b6102c65a03f1151561075757600080fd5b505050604051805150505050565b60075433600160a060020a0390811691161461078057600080fd5b600160a060020a038116151561079557600080fd5b600754600160a060020a0380831691167f8be0079c531659141344cd1fd0a4f28419497f9722a3daafe3b4186f6b6457e060405160405180910390a36007805473ffffffffffffffffffffffffffffffffffffffff1916600160a060020a0392909216919091179055565b600054600160a060020a031681565b60008060065461082a3460055461087b90919063ffffffff16565b11159050610836610a0e565b801561083f5750805b91505090565b6000808315156108585760009150610874565b5082820282848281151561086857fe5b041461087057fe5b8091505b5092915050565b60008282018381101561087057fe5b600354600160a060020a03163480156108fc0290604051600060405180830381858888f1935050505015156108be57600080fd5b565b600080548190600160a060020a03166318160ddd82604051602001526040518163ffffffff1660e060020a028152600401602060405180830381600087803b151561090a57600080fd5b6102c65a03f1151561091b57600080fd5b505050604051805192506109499050603c61093d60648563ffffffff61084516565b9063ffffffff610a3e16565b600054600354919250600160a060020a03908116916340c10f19911661097b606461093d60288763ffffffff61084516565b60006040516020015260405160e060020a63ffffffff8516028152600160a060020a0390921660048301526024820152604401602060405180830381600087803b15156109c757600080fd5b6102c65a03f115156109d857600080fd5b50505060405180519050506109eb6108be565b5050565b600654600554600091901015610a03610a55565b8061083f5750919050565b60008060006001544210158015610a2757506002544211155b915050341515818015610a375750805b9250505090565b6000808284811515610a4c57fe5b04949350505050565b600254421190565b6000610a67610a7d565b604051809103906000f080151561067057600080fd5b604051610ec780610a8e833901905600606060405260038054600160b060020a03191633600160a060020a0316179055610e998061002e6000396000f3006060604052600436106101115763ffffffff7c010000000000000000000000000000000000000000000000000000000060003504166305d2035b811461011657806306fdde031461013d578063095ea7b3146101c757806318160ddd146101e957806323b872dd1461020e578063313ce567146102365780633f4ba83a1461025f57806340c10f191461027457806342966c68146102965780635c975abb146102ac57806366188463146102bf57806370a08231146102e15780637d64bcb4146103005780638456cb59146103135780638da5cb5b1461032657806395d89b4114610355578063a9059cbb14610368578063d73dd6231461038a578063dd62ed3e146103ac578063f2fde38b146103d1575b600080fd5b341561012157600080fd5b6101296103f0565b604051901515815260200160405180910390f35b341561014857600080fd5b610150610400565b60405160208082528190810183818151815260200191508051906020019080838360005b8381101561018c578082015183820152602001610174565b50505050905090810190601f1680156101b95780820380516001836020036101000a031916815260200191505b509250505060405180910390f35b34156101d257600080fd5b610129600160a060020a0360043516602435610437565b34156101f457600080fd5b6101fc610462565b60405190815260200160405180910390f35b341561021957600080fd5b610129600160a060020a0360043581169060243516604435610468565b341561024157600080fd5b610249610495565b60405160ff909116815260200160405180910390f35b341561026a57600080fd5b61027261049a565b005b341561027f57600080fd5b610129600160a060020a0360043516602435610519565b34156102a157600080fd5b610272600435610626565b34156102b757600080fd5b610129610649565b34156102ca57600080fd5b610129600160a060020a0360043516602435610659565b34156102ec57600080fd5b6101fc600160a060020a036004351661067d565b341561030b57600080fd5b610129610698565b341561031e57600080fd5b610272610724565b341561033157600080fd5b6103396107a8565b604051600160a060020a03909116815260200160405180910390f35b341561036057600080fd5b6101506107b7565b341561037357600080fd5b610129600160a060020a03600435166024356107ee565b341561039557600080fd5b610129600160a060020a0360043516602435610812565b34156103b757600080fd5b6101fc600160a060020a0360043581169060243516610836565b34156103dc57600080fd5b610272600160a060020a0360043516610861565b60035460a860020a900460ff1681565b60408051908101604052600981527f57697265546f6b656e0000000000000000000000000000000000000000000000602082015281565b60035460009060a060020a900460ff161561045157600080fd5b61045b83836108fc565b9392505050565b60005481565b60035460009060a060020a900460ff161561048257600080fd5b61048d848484610968565b949350505050565b601281565b60035433600160a060020a039081169116146104b557600080fd5b60035460a060020a900460ff1615156104cd57600080fd5b6003805474ff0000000000000000000000000000000000000000191690557f7805862f689e2f13df9f062ff482ad3ad112aca9e0847911ed832e158c525b3360405160405180910390a1565b60035460009033600160a060020a0390811691161461053757600080fd5b60035460a860020a900460ff161561054e57600080fd5b600054610561908363ffffffff610aea16565b6000908155600160a060020a03841681526001602052604090205461058c908363ffffffff610aea16565b600160a060020a0384166000818152600160205260409081902092909255907f0f6798a560793a54c3bcfe86a93cde1e73087d944c0ea20544137d41213968859084905190815260200160405180910390a2600160a060020a03831660007fddf252ad1be2c89b69c2b068fc378daa952ba7f163c4a11628f55a4df523b3ef8460405190815260200160405180910390a350600192915050565b60035460a060020a900460ff161561063d57600080fd5b61064681610af9565b50565b60035460a060020a900460ff1681565b60035460009060a060020a900460ff161561067357600080fd5b61045b8383610bc2565b600160a060020a031660009081526001602052604090205490565b60035460009033600160a060020a039081169116146106b657600080fd5b60035460a860020a900460ff16156106cd57600080fd5b6003805475ff000000000000000000000000000000000000000000191660a860020a1790557fae5184fba832cb2b1f702aca6117b8d265eaf03ad33eb133f19dde0f5920fa0860405160405180910390a150600190565b60035433600160a060020a0390811691161461073f57600080fd5b60035460a060020a900460ff161561075657600080fd5b6003805474ff0000000000000000000000000000000000000000191660a060020a1790557f6985a02210a168e66602d3235cb6db0e70f92b3ba4d376a33c0f3d9434bff62560405160405180910390a1565b600354600160a060020a031681565b60408051908101604052600481527f5749524500000000000000000000000000000000000000000000000000000000602082015281565b60035460009060a060020a900460ff161561080857600080fd5b61045b8383610cbc565b60035460009060a060020a900460ff161561082c57600080fd5b61045b8383610db7565b600160a060020a03918216600090815260026020908152604080832093909416825291909152205490565b60035433600160a060020a0390811691161461087c57600080fd5b600160a060020a038116151561089157600080fd5b600354600160a060020a0380831691167f8be0079c531659141344cd1fd0a4f28419497f9722a3daafe3b4186f6b6457e060405160405180910390a36003805473ffffffffffffffffffffffffffffffffffffffff1916600160a060020a0392909216919091179055565b600160a060020a03338116600081815260026020908152604080832094871680845294909152808220859055909291907f8c5be1e5ebec7d5bd14f71427d1e84f3dd0314c0f7b2291e5b200ac8c7c3b9259085905190815260200160405180910390a350600192915050565b6000600160a060020a038316151561097f57600080fd5b600160a060020a0384166000908152600160205260409020548211156109a457600080fd5b600160a060020a03808516600090815260026020908152604080832033909416835292905220548211156109d757600080fd5b600160a060020a038416600090815260016020526040902054610a00908363ffffffff610e5b16565b600160a060020a038086166000908152600160205260408082209390935590851681522054610a35908363ffffffff610aea16565b600160a060020a03808516600090815260016020908152604080832094909455878316825260028152838220339093168252919091522054610a7d908363ffffffff610e5b16565b600160a060020a03808616600081815260026020908152604080832033861684529091529081902093909355908516917fddf252ad1be2c89b69c2b068fc378daa952ba7f163c4a11628f55a4df523b3ef9085905190815260200160405180910390a35060019392505050565b60008282018381101561045b57fe5b6000808211610b0757600080fd5b600160a060020a033316600090815260016020526040902054821115610b2c57600080fd5b5033600160a060020a038116600090815260016020526040902054610b519083610e5b565b600160a060020a03821660009081526001602052604081209190915554610b7e908363ffffffff610e5b16565b600055600160a060020a0381167fcc16f5dbb4873280815c1ee09dbd06736cffcc184412cf7a71a0fdb75d397ca58360405190815260200160405180910390a25050565b600160a060020a03338116600090815260026020908152604080832093861683529290529081205480831115610c1f57600160a060020a033381166000908152600260209081526040808320938816835292905290812055610c56565b610c2f818463ffffffff610e5b16565b600160a060020a033381166000908152600260209081526040808320938916835292905220555b600160a060020a0333811660008181526002602090815260408083209489168084529490915290819020547f8c5be1e5ebec7d5bd14f71427d1e84f3dd0314c0f7b2291e5b200ac8c7c3b925915190815260200160405180910390a35060019392505050565b6000600160a060020a0383161515610cd357600080fd5b600160a060020a033316600090815260016020526040902054821115610cf857600080fd5b600160a060020a033316600090815260016020526040902054610d21908363ffffffff610e5b16565b600160a060020a033381166000908152600160205260408082209390935590851681522054610d56908363ffffffff610aea16565b600160a060020a0380851660008181526001602052604090819020939093559133909116907fddf252ad1be2c89b69c2b068fc378daa952ba7f163c4a11628f55a4df523b3ef9085905190815260200160405180910390a350600192915050565b600160a060020a033381166000908152600260209081526040808320938616835292905290812054610def908363ffffffff610aea16565b600160a060020a0333811660008181526002602090815260408083209489168084529490915290819020849055919290917f8c5be1e5ebec7d5bd14f71427d1e84f3dd0314c0f7b2291e5b200ac8c7c3b92591905190815260200160405180910390a350600192915050565b600082821115610e6757fe5b509003905600a165627a7a72305820aad417d9ae3a3a7497e4175bff5836b9051759a41f3fee1187b34f04db039bbf0029a165627a7a723058205112a8fc457a088242cf47b4d2ac53c014362ff86a89be71310981f2bf0792e10029606060405260038054600160b060020a03191633600160a060020a0316179055610e998061002e6000396000f3006060604052600436106101115763ffffffff7c010000000000000000000000000000000000000000000000000000000060003504166305d2035b811461011657806306fdde031461013d578063095ea7b3146101c757806318160ddd146101e957806323b872dd1461020e578063313ce567146102365780633f4ba83a1461025f57806340c10f191461027457806342966c68146102965780635c975abb146102ac57806366188463146102bf57806370a08231146102e15780637d64bcb4146103005780638456cb59146103135780638da5cb5b1461032657806395d89b4114610355578063a9059cbb14610368578063d73dd6231461038a578063dd62ed3e146103ac578063f2fde38b146103d1575b600080fd5b341561012157600080fd5b6101296103f0565b604051901515815260200160405180910390f35b341561014857600080fd5b610150610400565b60405160208082528190810183818151815260200191508051906020019080838360005b8381101561018c578082015183820152602001610174565b50505050905090810190601f1680156101b95780820380516001836020036101000a031916815260200191505b509250505060405180910390f35b34156101d257600080fd5b610129600160a060020a0360043516602435610437565b34156101f457600080fd5b6101fc610462565b60405190815260200160405180910390f35b341561021957600080fd5b610129600160a060020a0360043581169060243516604435610468565b341561024157600080fd5b610249610495565b60405160ff909116815260200160405180910390f35b341561026a57600080fd5b61027261049a565b005b341561027f57600080fd5b610129600160a060020a0360043516602435610519565b34156102a157600080fd5b610272600435610626565b34156102b757600080fd5b610129610649565b34156102ca57600080fd5b610129600160a060020a0360043516602435610659565b34156102ec57600080fd5b6101fc600160a060020a036004351661067d565b341561030b57600080fd5b610129610698565b341561031e57600080fd5b610272610724565b341561033157600080fd5b6103396107a8565b604051600160a060020a03909116815260200160405180910390f35b341561036057600080fd5b6101506107b7565b341561037357600080fd5b610129600160a060020a03600435166024356107ee565b341561039557600080fd5b610129600160a060020a0360043516602435610812565b34156103b757600080fd5b6101fc600160a060020a0360043581169060243516610836565b34156103dc57600080fd5b610272600160a060020a0360043516610861565b60035460a860020a900460ff1681565b60408051908101604052600981527f57697265546f6b656e0000000000000000000000000000000000000000000000602082015281565b60035460009060a060020a900460ff161561045157600080fd5b61045b83836108fc565b9392505050565b60005481565b60035460009060a060020a900460ff161561048257600080fd5b61048d848484610968565b949350505050565b601281565b60035433600160a060020a039081169116146104b557600080fd5b60035460a060020a900460ff1615156104cd57600080fd5b6003805474ff0000000000000000000000000000000000000000191690557f7805862f689e2f13df9f062ff482ad3ad112aca9e0847911ed832e158c525b3360405160405180910390a1565b60035460009033600160a060020a0390811691161461053757600080fd5b60035460a860020a900460ff161561054e57600080fd5b600054610561908363ffffffff610aea16565b6000908155600160a060020a03841681526001602052604090205461058c908363ffffffff610aea16565b600160a060020a0384166000818152600160205260409081902092909255907f0f6798a560793a54c3bcfe86a93cde1e73087d944c0ea20544137d41213968859084905190815260200160405180910390a2600160a060020a03831660007fddf252ad1be2c89b69c2b068fc378daa952ba7f163c4a11628f55a4df523b3ef8460405190815260200160405180910390a350600192915050565b60035460a060020a900460ff161561063d57600080fd5b61064681610af9565b50565b60035460a060020a900460ff1681565b60035460009060a060020a900460ff161561067357600080fd5b61045b8383610bc2565b600160a060020a031660009081526001602052604090205490565b60035460009033600160a060020a039081169116146106b657600080fd5b60035460a860020a900460ff16156106cd57600080fd5b6003805475ff000000000000000000000000000000000000000000191660a860020a1790557fae5184fba832cb2b1f702aca6117b8d265eaf03ad33eb133f19dde0f5920fa0860405160405180910390a150600190565b60035433600160a060020a0390811691161461073f57600080fd5b60035460a060020a900460ff161561075657600080fd5b6003805474ff0000000000000000000000000000000000000000191660a060020a1790557f6985a02210a168e66602d3235cb6db0e70f92b3ba4d376a33c0f3d9434bff62560405160405180910390a1565b600354600160a060020a031681565b60408051908101604052600481527f5749524500000000000000000000000000000000000000000000000000000000602082015281565b60035460009060a060020a900460ff161561080857600080fd5b61045b8383610cbc565b60035460009060a060020a900460ff161561082c57600080fd5b61045b8383610db7565b600160a060020a03918216600090815260026020908152604080832093909416825291909152205490565b60035433600160a060020a0390811691161461087c57600080fd5b600160a060020a038116151561089157600080fd5b600354600160a060020a0380831691167f8be0079c531659141344cd1fd0a4f28419497f9722a3daafe3b4186f6b6457e060405160405180910390a36003805473ffffffffffffffffffffffffffffffffffffffff1916600160a060020a0392909216919091179055565b600160a060020a03338116600081815260026020908152604080832094871680845294909152808220859055909291907f8c5be1e5ebec7d5bd14f71427d1e84f3dd0314c0f7b2291e5b200ac8c7c3b9259085905190815260200160405180910390a350600192915050565b6000600160a060020a038316151561097f57600080fd5b600160a060020a0384166000908152600160205260409020548211156109a457600080fd5b600160a060020a03808516600090815260026020908152604080832033909416835292905220548211156109d757600080fd5b600160a060020a038416600090815260016020526040902054610a00908363ffffffff610e5b16565b600160a060020a038086166000908152600160205260408082209390935590851681522054610a35908363ffffffff610aea16565b600160a060020a03808516600090815260016020908152604080832094909455878316825260028152838220339093168252919091522054610a7d908363ffffffff610e5b16565b600160a060020a03808616600081815260026020908152604080832033861684529091529081902093909355908516917fddf252ad1be2c89b69c2b068fc378daa952ba7f163c4a11628f55a4df523b3ef9085905190815260200160405180910390a35060019392505050565b60008282018381101561045b57fe5b6000808211610b0757600080fd5b600160a060020a033316600090815260016020526040902054821115610b2c57600080fd5b5033600160a060020a038116600090815260016020526040902054610b519083610e5b565b600160a060020a03821660009081526001602052604081209190915554610b7e908363ffffffff610e5b16565b600055600160a060020a0381167fcc16f5dbb4873280815c1ee09dbd06736cffcc184412cf7a71a0fdb75d397ca58360405190815260200160405180910390a25050565b600160a060020a03338116600090815260026020908152604080832093861683529290529081205480831115610c1f57600160a060020a033381166000908152600260209081526040808320938816835292905290812055610c56565b610c2f818463ffffffff610e5b16565b600160a060020a033381166000908152600260209081526040808320938916835292905220555b600160a060020a0333811660008181526002602090815260408083209489168084529490915290819020547f8c5be1e5ebec7d5bd14f71427d1e84f3dd0314c0f7b2291e5b200ac8c7c3b925915190815260200160405180910390a35060019392505050565b6000600160a060020a0383161515610cd357600080fd5b600160a060020a033316600090815260016020526040902054821115610cf857600080fd5b600160a060020a033316600090815260016020526040902054610d21908363ffffffff610e5b16565b600160a060020a033381166000908152600160205260408082209390935590851681522054610d56908363ffffffff610aea16565b600160a060020a0380851660008181526001602052604090819020939093559133909116907fddf252ad1be2c89b69c2b068fc378daa952ba7f163c4a11628f55a4df523b3ef9085905190815260200160405180910390a350600192915050565b600160a060020a033381166000908152600260209081526040808320938616835292905290812054610def908363ffffffff610aea16565b600160a060020a0333811660008181526002602090815260408083209489168084529490915290819020849055919290917f8c5be1e5ebec7d5bd14f71427d1e84f3dd0314c0f7b2291e5b200ac8c7c3b92591905190815260200160405180910390a350600192915050565b600082821115610e6757fe5b509003905600a165627a7a72305820aad417d9ae3a3a7497e4175bff5836b9051759a41f3fee1187b34f04db039bbf0029",
  "source": "pragma solidity ^0.4.18;\n\nimport \"zeppelin-solidity/contracts/crowdsale/CappedCrowdsale.sol\";\nimport \"zeppelin-solidity/contracts/crowdsale/FinalizableCrowdsale.sol\";\nimport \"./WireToken.sol\";\n\ncontract WireCrowdsale is CappedCrowdsale, FinalizableCrowdsale {\n\n  uint256 public constant TOTAL_SHARE = 100;\n  uint256 public constant CROWDSALE_SHARE = 60;\n  uint256 public constant FOUNDATION_SHARE = 40;\n\n  bool public hasBeenEndedByOwner = false;\n\n  function WireCrowdsale(uint256 _startTime, uint256 _endTime, uint256 _rate, uint256 _cap, address _wallet) public\n    CappedCrowdsale(_cap)\n    FinalizableCrowdsale()\n    Crowdsale(_startTime, _endTime, _rate, _wallet)\n  {\n  \tWireToken(token).pause();\n  }\n\n  // Unpause token transfers.\n  function unpauseToken() onlyOwner public {\n    require(isFinalized);\n    WireToken(token).unpause();\n  }\n\n  // Pause token transfers.\n  function pauseToken() onlyOwner public {\n    require(isFinalized);\n    WireToken(token).pause();\n  }\n\n  // Create new tokens.\n  function mintTokens(address _to, uint256 _amount) onlyOwner public {\n    WireToken(token).mint(_to, _amount);\n  }\n\n  // Manually end the crowdsale.\n  function end() onlyOwner public {\n    hasBeenEndedByOwner = true;\n  }\n\n  // Override Crowdsale#hasEnded to add logic for manual ending\n  // @return true if crowdsale event has ended normally or has been manually ended by user.\n  function hasEnded() public view returns (bool) {\n    return super.hasEnded() || hasBeenEndedByOwner;\n  }\n\n  function createTokenContract() internal returns (MintableToken) {\n    return new WireToken();\n  }\n\n  function finalization() internal {\n    uint256 totalSupply = token.totalSupply();\n    uint256 finalSupply = TOTAL_SHARE.mul(totalSupply).div(CROWDSALE_SHARE);\n\n    token.mint(wallet, FOUNDATION_SHARE.mul(finalSupply).div(TOTAL_SHARE));\n\n    super.finalization();\n  }\n\n}",
  "sourcePath": "/Users/santiagoramirez/Development/College/Bitcoin/wire/contracts/WireCrowdsale.sol",
  "compiler": {
    "name": "solc",
    "version": "0.4.18+commit.9cf6e910.Emscripten.clang"
  },
  "schemaVersion": "1.0.1",
  "updatedAt": "2017-11-26T22:40:14.192Z"
}